:030000000201EE0C
:1001000075319875307675F05475F032E5F0A83099
:100110007830E8E67460AFF0FEAD307C60D2D37F1B
:1001200060AE30FDACF0D2D4AF07AE06AD05AC0486
:1001300053D0E78C1F8D1E851E1D751C1D740083FA
:10014000740190013393900010E07930C7741BD78D
:10015000C0F0C0E0D0F0D0E0D0E075810790321060
:10016000C082C083904321D083D082120175317642
:100170000201788005000022217374017582847564
:100180008301730000752F00D27FA27FB3827F723C
:100190007FB07FA0D7C2D7927FB2D774F0C474FF6C
:1001A000E47455F474ED03032323C3131333332092
:1001B0007F07B27F207F02000030D706B330D7021E
:1001C0000000400450020000D2D510D50200007497
:1001D000007005006002000075F003B2D7D5F0FB97
:1001E000007420B42008B4400000B4100000745023
:1001F00075F0FC55F045F0745065F00405F0080505
:100200000106A31615011815F014742F2401D3C28A
:10021000D69400D3C2D63400C2D674392418C2D6BC
:100220007438941974F72426500205F0C3941E7490
:10023000772411C2D274889422740F75F011A474BB
:100240001075F010A474FB75F0108474FB75F00049
:100250008474262419D42456D474102402D4740926
:100260002409D4740CD4D4D2D6D4C2D6D40080FEFF
:00000001FF
